:100000000C9434000C943E000C943E000C943E0082
:100010000C943E000C943E000C943E000C943E0068
:100020000C943E000C943E000C943E000C943E0058
:100030000C943E000C943E000C943E000C943E0048
:100040000C943E000C943E000C943E000C943E0038
:100050000C943E000C943E000C943E000C943E0028
:100060000C943E000C943E0011241FBECFEFD8E04C
:10007000DEBFCDBF0E9456000C9481000C9400009E
:1000800080E285B92FEF83ED90E3215080409040CE
:10009000E1F700C0000015B82FEF83ED90E3215089
:1000A00080409040E1F700C00000089589B19CE1D4
:1000B0009AB993EE9BB990E29AB983FB882780F9AD
:1000C000282F2295220F220F207C8295807F39B124
:1000D00039B133B12BB98BB995B93FEF43ED50E34B
:1000E000315040405040E1F700C0000015B83FEFEC
:1000F00043ED50E3315040405040E1F700C0000074
:06010000E6CFF894FFCFEA
:00000001FF
