:100000000C9434000C943E000C943E000C943E0082
:100010000C943E000C943E000C943E000C943E0068
:100020000C943E000C943E000C943E000C943E0058
:100030000C943E000C943E000C943E000C943E0048
:100040000C943E000C943E000C943E000C943E0038
:100050000C943E000C943E000C943E000C943E0028
:100060000C943E000C943E0011241FBECFEFD8E04C
:10007000DEBFCDBF0E9456000C9481000C9400009E
:1000800080E285B92FEF83ED90E3215080409040CE
:10009000E1F700C0000015B82FEF83ED90E3215089
:1000A00080409040E1F700C00000089529B1287019
:1000B00051E030E289B199B143B1222319F0892F7F
:1000C000869585278170982F9295990F990F907C2E
:1000D0009BB98295807F8BB935B94FEF83ED90E363
:1000E000415080409040E1F700C0000015B84FEF4C
:1000F00083ED90E3415080409040E1F700C0000064
:06010000D9CFF894FFCFF7
:00000001FF
